:100000000C942A000C9447000C9447000C94470071
:100010000C9447000C9447000C9447000C94470044
:100020000C9447000C9447000C94BB040C9494046B
:100030000C9447000C9447000C9447000C94470024
:100040000C9447000C9447000C9447000C94470014
:100050000C94470011241FBECFE5D8E0DEBFCDBF12
:1000600010E0A0E6B0E0EEE2FDE002C005900D92E7
:10007000AC36B107D9F720E0ACE6B0E001C01D9284
:10008000A137B207E1F70E94AB000C9495060C94DF
:10009000000060E081E00E94130481111EC061E055
:1000A00081E00E941304811118C08091600090913A
:1000B0006100892B49F08091600090916100019767
:1000C0009093610080936000809160009091610046
:1000D000892B61F410926C00089588E893E1909365
:1000E00061008093600081E080936C000895861722
:1000F00048F465E082E00E94FA0162E080E00E943C
:100100001802089565E082E00E94090208956817C8
:1001100048F464E082E00E94FA0162E080E00E941C
:10012000FA01089564E082E00E9409020895DC016A
:1001300090E020E030E007C0FD01E90FF11D4081B3
:10014000240F311D9F5F9617B8F370E0C9010E941C
:100150008106862F0895CF93DF93CDB7DEB72B9717
:100160000FB6F894DEBF0FBECDBF0E94E1020E9421
:10017000B1010E94610480E00E94650460E089E4AE
:1001800090E00E9485048CE38983FE0132968AE028
:10019000DF011D928A95E9F7F12CB12CD12C0F2E9D
:1001A000FCE3CF2EF02D67E080E00E941304813045
:1001B00009F0D2C067E080E00E9413048130D1F3DF
:1001C000DD24D394C9C081E00E94F102BC0180E02B
:1001D00090E00E94860520E030E04AEF53E40E9460
:1001E000EC0520E030E040E85AE30E94EC05AA2448
:1001F000A394AB0C0B2D10E00E945705E62EE2E015
:10020000F0E0EC0FFD1FE00FF11F6083BAE0AB16CA
:1002100011F0BA2C01C0B12C89E08F1508F0F394CD
:100220006F2DCE0102960E94970099810F2EF5E066
:100230009F2EF02D990E0F2EFBEFAF2EF02DA90E55
:100240001DEC819F012D1124069506950695302FF2
:10025000330F232F220F220F230F882E821A919FF4
:10026000112D1124169516951695212F220F822FE8
:10027000880F880F820F792E781A80916C00811177
:1002800004C0682D802F0E94880260E081E00E94F7
:100290001304813031F061E081E00E941304813069
:1002A00019F481E080936C0080916C00813009F03A
:1002B00042C0BE016F5F7F4F84EF91E00E94D20188
:1002C000272D412F682D802F0E94AE0260E081E033
:1002D0000E941304813069F489818B3450F460E00A
:1002E00081E00E9413048130D1F389818B5F89837F
:1002F00012C061E081E00E941304813061F48981C1
:10030000843248F061E081E00E9413048130D1F32F
:100310008981855089836981C61629F084EF91E02F
:100320000E94B401C980692D8E2D0E9487006A2D1C
:100330008E2D0E94770067E080E00E9413048130D8
:1003400059F467E080E00E9413048130D1F362E049
:1003500080E00E940902D12CA1E0DA1609F433CF23
:1003600022CF0E94E20408951F93CF93DF93D82FEA
:10037000C62F192F10650E94EE04812F0E941105CF
:100380008D2F0E943B058C2F0E943B050E940A0581
:100390008FE19EE40197F1F700C00000DF91CF915B
:1003A0001F9108950F931F93CF93DF9361157105EC
:1003B000E1F08B01D82FC92FC0650E94EE048C2F6D
:1003C0000E9411058D2F0E943B050E94FC048C2F7A
:1003D0000E942605C8010E9447050E940A058FE178
:1003E0009EE40197F1F700C00000DF91CF911F91CB
:1003F0000F910895CF93DF93C82FD62F41E00E942D
:10040000FF0241E06D2F8C2F0E946F03DF91CF918F
:100410000895CF93DF93C82FD62F41E00E94FF02AB
:1004200040E06D2F8C2F0E946F03DF91CF910895D4
:10043000CF93DF93C82FD62F41E00E94FF026D2F8C
:100440008C2F0E94DF032FEF81EE94E0215080403B
:100450009040E1F700C000006D2F8C2F0E94DF0359
:10046000DF91CF9108951F93CF93DF93182FC62F5D
:10047000D42F6FEF83E00E944104C11122C0DB3012
:1004800099F441E066E082E00E94FF0240E066E00D
:1004900082E00E946F03E12FF0E0EE59FF4F608190
:1004A00083E00E94510430C0D63171F541E066E02E
:1004B00082E00E94FF0241E066E082E00E946F035A
:1004C00023C0C13009F5DB3099F441E067E082E0F8
:1004D0000E94FF0240E067E082E00E946F03E12F8C
:1004E000F0E0EE59FF4F608183E00E9451040CC0A0
:1004F000D63151F441E067E082E00E94FF0241E022
:1005000067E082E00E946F03DF91CF911F91089511
:10051000CF93DF93D82FC62F4BE060E00E943302C9
:100520008FE19EE40197F1F700C0000046E160E032
:100530008D2F0E9433024BE061E08C2F0E9433022A
:100540008FE19EE40197F1F700C0000046E161E011
:100550008C2F0E943302DF91CF910895FF920F9369
:100560001F93CF93DF93F82E062FD42F122FC0E0C6
:1005700005C0602F8F2D0E948802CF5FC233C8F361
:100580002FEF80E792E0215080409040E1F700C0DB
:100590000000C0E005C0612F8D2F0E948802CF5F50
:1005A000C233C8F32FEF80E792E0215080409040A3
:1005B000E1F700C00000DF91CF911F910F91FF90F4
:1005C000089587B1806487B987B18F7787B986B17D
:1005D000887F86B986B1876086B986B1806886B91A
:1005E000089597B1907E97B997B1892B87B986B155
:1005F000806486B9349BFECF84B195B108954130B3
:10060000A1F5813089F028F08230C9F0833011F1F2
:1006100008952AB381E090E002C0880F991F6A957F
:10062000E2F7822B8ABB089527B381E090E002C0F5
:10063000880F991F6A95E2F7822B87BB089524B330
:1006400081E090E002C0880F991F6A95E2F7822B43
:1006500084BB089521B381E090E002C0880F991F08
:100660006A95E2F7822B81BB0895411137C0813032
:1006700091F028F08230D9F0833029F108952AB31F
:1006800081E090E002C0880F991F6A95E2F780959B
:1006900082238ABB089527B381E090E002C0880FCF
:1006A000991F6A95E2F78095822387BB089524B34A
:1006B00081E090E002C0880F991F6A95E2F780956B
:1006C000822384BB089521B381E090E002C0880FAB
:1006D000991F6A95E2F78095822381BB0895413086
:1006E000A1F5813089F028F08230C9F0833011F112
:1006F00008952BB381E090E002C0880F991F6A959E
:10070000E2F7822B8BBB089528B381E090E002C012
:10071000880F991F6A95E2F7822B88BB089525B34D
:1007200081E090E002C0880F991F6A95E2F7822B62
:1007300085BB089522B381E090E002C0880F991F25
:100740006A95E2F7822B82BB0895411137C0813050
:1007500091F028F08230D9F0833029F108952BB33D
:1007600081E090E002C0880F991F6A95E2F78095BA
:1007700082238BBB089528B381E090E002C0880FEC
:10078000991F6A95E2F78095822388BB089525B367
:1007900081E090E002C0880F991F6A95E2F780958A
:1007A000822385BB089522B381E090E002C0880FC8
:1007B000991F6A95E2F78095822382BB0895813064
:1007C00089F028F08230C9F0833011F108952BB3FD
:1007D00081E090E002C0880F991F6A95E2F78227B6
:1007E0008BBB089528B381E090E002C0880F991F69
:1007F0006A95E2F7822788BB089525B381E090E0EF
:1008000002C0880F991F6A95E2F7822785BB089579
:1008100022B381E090E002C0880F991F6A95E2F749
:10082000822782BB0895813079F028F08230A9F0C8
:100830008330E1F024C089B390E002C0959587959C
:100840006A95E2F78170089586B390E002C09595AD
:1008500087956A95E2F78170089583B390E002C0AE
:10086000959587956A95E2F78170089580B390E039
:1008700002C0959587956A95E2F78170089580E0AA
:100880000895813041F028F0823039F0833039F01A
:1008900008956ABB089567BB089564BB089561BB62
:1008A0000895813041F028F0823039F0833039F0FA
:1008B00008956BBB089568BB089565BB089562BB3E
:1008C00008958FB780688FBF089593B7987F93BFBF
:1008D00093B7936093BF81110AC083B7877F83BFAB
:1008E00083B78F7B83BF89B7816089BF08958130CB
:1008F00059F483B7886083BF83B78F7B83BF8AEF48
:100900008CBF89B7826089BF0895662319F0613072
:1009100031F0089590936E0080936D000895909348
:10092000700080936F0008951F920F920FB60F9280
:1009300011242F933F934F935F936F937F938F93E4
:100940009F93AF93BF93EF93FF93E0916D00F0916E
:100950006E000995FF91EF91BF91AF919F918F919B
:100960007F916F915F914F913F912F910F900FBEAB
:100970000F901F9018951F920F920FB60F9211248F
:100980002F933F934F935F936F937F938F939F9397
:10099000AF93BF93EF93FF93E0916F00F0917000DE
:1009A0000995FF91EF91BF91AF919F918F917F91A9
:1009B0006F915F914F913F912F910F900FBE0F90CC
:1009C0001F9018958CE080B981B18E7F81B981B17B
:1009D0008D7F81B986B7846086BF089586B78062AF
:1009E00086BF86B7806886BF06B607FEFDCF81B199
:1009F000887F8830E1F7089586B7806286BF86B722
:100A0000806886BF06B607FEFDCF81B1887F803142
:100A1000E1F7089586B7806186BF86B7806886BF94
:100A20000895882394F0880F83B983B18E7F83B9AA
:100A300086B78F7D86BF86B7806886BF06B607FEFD
:100A4000FDCF81B1887F8831E1F70895882394F044
:100A5000880F83B983B1816083B986B78F7D86BFE4
:100A600086B7806886BF06B607FEFDCF81B1887F56
:100A70008034E1F7089583B986B7806886BF06B6EB
:100A800007FEFDCF81B1887F8832E1F70895FC0130
:100A9000892B61F096B7906896BF06B607FEFDCF2A
:100AA00091B1987F9835E1F783B1808308950E94D2
:100AB000CB0588F09F5798F0B92F9927B751B0F020
:100AC000E1F0660F771F881F991F1AF0BA95C9F7D2
:100AD00014C0B13091F00E94E505B1E008950C9486
:100AE000E505672F782F8827B85F39F0B93FCCF339
:100AF000869577956795B395D9F73EF4909580954F
:100B0000709561957F4F8F4F9F4F0895E89409C06E
:100B100097FB3EF490958095709561957F4F8F4F30
:100B20009F4F9923A9F0F92F96E9BB279395F69546
:100B3000879577956795B795F111F8CFFAF4BB0FC4
:100B400011F460FF1BC06F5F7F4F8F4F9F4F16C028
:100B5000882311F096E911C0772321F09EE8872FB2
:100B6000762F05C0662371F096E8862F70E060E06E
:100B70002AF09A95660F771F881FDAF7880F9695E7
:100B8000879597F9089557FD9058440F551F59F0D0
:100B90005F3F71F04795880F97FB991F61F09F3F6A
:100BA00079F087950895121613061406551FF2CF93
:100BB0004695F1DF08C0161617061806991FF1CFE3
:100BC00086957105610508940895E894BB2766270A
:100BD0007727CB0197F908950E94FF050C947006C2
:100BE0000E94620638F00E94690620F0952311F0F9
:100BF0000C9459060C945F0611240C94E6050E948F
:100C0000C30570F3959FC1F3950F50E0551F629F88
:100C1000F001729FBB27F00DB11D639FAA27F00D55
:100C2000B11DAA1F649F6627B00DA11D661F829F7C
:100C30002227B00DA11D621F739FB00DA11D621F61
:100C4000839FA00D611D221F749F3327A00D611D7E
:100C5000231F849F600D211D822F762F6A2F112460
:100C60009F5750409AF0F1F088234AF0EE0FFF1F93
:100C7000BB1F661F771F881F91505040A9F79E3FEA
:100C8000510580F00C9459060C94E6055F3FE4F39F
:100C9000983ED4F3869577956795B795F795E79540
:100CA0009F5FC1F7FE2B880F911D9695879597F949
:100CB000089597F99F6780E870E060E008959FEFDE
:100CC00080EC089500240A941616170618060906E3
:100CD000089500240A9412161306140605060895B2
:100CE000092E0394000C11F4882352F0BB0F40F43A
:100CF000BF2B11F460FF04C06F5F7F4F8F4F9F4F7A
:100D00000895AA1BBB1B51E107C0AA1FBB1FA61752
:100D1000B70710F0A61BB70B881F991F5A95A9F7A4
:0E0D200080959095BC01CD010895F894FFCF09
:0C0D2E0088133F065B4F666D7D077F6FEA
:00000001FF
